:020000020000FC
:060000000C943400000026
:1000680008E00EBF0FEF0DBFD1E0C0E001E8099333
:1000780004E2099304E2099300E0099302E4099376
:1000880002E409930CE3099301E80993389A399A31
:100098003A9A3B9A529A539A549A559A569A579A18
:1000A800209A219A229A239A249A259A11E0D1E03B
:1000B800C0E00991612D712D812D912D0000000066
:1000C8000000000000009395983CC4F30000000075
:1000D8000000000000008395883C84F300000000C5
:1000E8000000000000007395783C44F30000000015
:1000F8000000000000006395683C04F315B818B8C8
:100108001BB807FB56F906FB57F905FB30F904FB4A
:1001180031F903FB32F902FB33F901FB34F900FB37
:1001280035F910FB40F911FB41F912FB42F913FBB9
:1001380043F914FB52F915FB53F916FB54F917FB55
:1001480055F935B948B95BB9103821F0110F000FCE
:080158000C945D000C945A00A8
:00000001FF
