:020000020000FC
:060000000C943400000026
:1000680008E00EBF0FEF0DBF2993389A399A3A9AD4
:100078003B9A529A539A549A559A569A579A209A52
:10008800219A229A239A249A259AD1E0C0E02881BD
:1000980011E0000000000000000000000000000067
:1000A8000000000000000000000000000000000048
:1000B8000000000000000000000000000000000038
:1000C8000000000000000000000000000000000028
:1000D8000000000000000000000000000000000018
:1000E8000000000000000000000000000000000008
:1000F80000000000000000000000000000000000F8
:1001080000000000000000000000000000000000E7
:10011800000015B818B81BB80FEA07FB56F906FB1C
:1001280057F905FB30F904FB31F903FB32F902FBFF
:1001380033F901FB34F900FB35F910FB40F911FBE9
:1001480041F912FB42F913FB43F914FB52F915FB71
:1001580053F916FB54F917FB55F935B948B95BB98A
:0E016800103819F0110F0C944D000C944C003F
:00000001FF
