:020000020000FC
:060000000C943400000026
:1000680008E00EBF0FEF0DBF389A399A3A9A3B9ABB
:10007800529A539A549A559A569A579A209A219A6C
:10008800229A239A249A259A000000000000000072
:100098000000000000000000000000000000000058
:1000A8000000000000000000000000000000000048
:1000B8000000000000000000000000000000000038
:1000C8000000000000000000000000000000000028
:104A08000000000000000000409841984298439838
:104A18005A985B985C985D985E985F982898299852
:104A28002A982B982C982D981F5F113071F012300E
:104A380081F0133091F01430A1F01530B1F0163038
:104A4800C1F01730D1F01830E1F0409A5E9A0C941A
:104A58004800419A5F9A0C944800429A289A0C940C
:104A68004800439A299A0C9448005A9A2A9A0C9416
:104A780048005B9A2B9A0C9448005C9A2C9A0C94E8
:0C4A880048005D9A2D9A10E00C94480044
:00000001FF
