:020000020000FC
:060000000C943400000026
:1000680008E00EBF0FEF0DBF389A399A3A9A3B9ABB
:10007800529A539A549A559A569A579A209A219A6C
:10008800229A239A249A259A11E0D1E0C0E0099196
:100098000000000000000000000000000000000058
:1000A800000000000000000000008395883CC4F3B5
:1000B80000007395743684F300006395643644F346
:1000C80015B818B81BB807FB56F906FB57F905FB16
:1000D80030F904FB31F903FB32F902FB33F901FB78
:1000E80034F900FB35F910FB40F911FB41F912FB1B
:1000F80042F913FB43F914FB52F915FB53F916FBAC
:1001080054F917FB55F935B948B95BB9103821F0DE
:0C011800110F000F0C944B000C944800D9
:00000001FF
