:020000020000FC
:060000000C94900F0000BB
:060040000C9434000000E6
:060024000C943500000001
:1000680018952F932FB72F932F933F93CF93DF9309
:100078008F939F938DE291E00E94B30E81E391E00C
:100088000E94B30E85E391E00E94B30E89E391E0EC
:100098000E94B30E8DE391E00E94B30E81E491E0DB
:1000A8000E94B30E85E491E00E94B30E89E491E0CA
:1000B8000E94B30E9F918F91DF91CF913F912F9125
:1000C8002F912FBF2F91189587E00E94D70E8DE2B0
:1000D80091E06FE970E00E94BC0E81E391E064ED6D
:1000E80070E00E94BC0E85E391E062E072E00E943D
:1000F800BC0E89E391E067E279E00E94BC0E0E94A1
:10010800260DD1E0CDE229913991D1E0C0E02993C3
:100118003993D1E0C1E329913991D1E0C0E0229629
:1001280029933993D1E0C5E329913991D1E0C0E011
:10013800249629933993D1E0C9E329913991D1E0E3
:10014800C0E026962993399381E391E00E94C70E77
:100158008DE291E00E94C70E85E391E00E94C70EF0
:1001680089E391E00E94C70E0E943E0D0C94830023
:10017800089587E00E94D70E81E391E060E870E07F
:100188000E94BC0E0E94260D00E181E00E94810DB4
:10019800382F3F9380E00E94810D3F91482F832F95
:1001A800642F0E94C50C0A95003079F781E391E02D
:1001B8000E94C70E813031F30E943E0D0C94DA0084
:1001C800089587E00E94D70E0E946A0181E391E0BA
:1001D80060E170E00E94BC0E85E391E06DE070E0A4
:1001E8000E94BC0E0E94E1010E9475020E946402F6
:1001F8000E94260D0E94F8010E94C60D082F192F93
:10020800003021F4103011F40C941A01D1E0CDE43F
:100218002881398121953195021721F4131711F49A
:100228000C941A01D1E0CDE40A831B8381E391E0A9
:100238000E94C70E8130F1F085E391E00E94C70E5D
:10024800803029F0D1E0C2ED2A8120952A83D1E0BF
:10025800C2ED288039800A81822D632D0E94DF0C2F
:10026800003021F0822D632D0E94C50C0E943E0DA6
:100278000C940001D1E0CDE42A813B8128833983A5
:100288000E94D001813021F00E9450020C945B0141
:10029800D1E0CDE44C8043944C82D1E0C2ED48805B
:1002A8005980842D652D0E94C50C0E9464020E940D
:1002B8001C020E9445020E94A901813011F00C9491
:1002C8003A010E948D010C94E50008950F9389E38B
:1002D80091E060E270E00E94BC0E0E94400C05E0D4
:1002E8000E943E0D89E391E00E94C70E813011F013
:1002F8000C947401202F2170213021F40E94260DC6
:100308000C9488010E94400C0A95003049F70F911F
:10031800089581E391E068E070E00E94BC0E0E94BD
:100328003E0D81E391E00E94C70E813011F00C94DC
:1003380093010E9450020E944502CDE4D1E02C8135
:100348002A952C83203059F708952F923F924F9287
:10035800CDE4D1E04C804A94E2E5F1E0C2E9D1E095
:100368002080388040E0E40DF41FC40DD41F2081A4
:100378003881822D932D622F732F0E94E90A8130D4
:1003880039F0319721974A9440E0441681F780E08C
:100398004F903F902F900895A2E5B1E0C2E9D1E0D7
:1003A8002C913881C2EDD1E048815981842F952F55
:1003B800622F732F0E94E90A0895D1E0CDE420E06E
:1003C80031E0288339832A833B8342E04C83F1E080
:1003D800E2E5D1E0C2E921E035E02083388321E07D
:1003E80036E0218339830895D1E0CDE45C8140E093
:1003F800F1E0E2E5D1E0C2E9208138812F933F9313
:100408004F935F93CF93EF93DF93FF93822F632FE5
:100418000E94C50CFF91DF91EF91CF915F914F91B1
:100428003F912F91319621964395451729F70895C5
:10043800D1E0CDE44C814250403094F0F1E0E2E567
:10044800D1E0C2E950E0E40FF51FC40FD51F2081A9
:10045800388121833983319721974A954F3FB9F7DE
:10046800D1E0CDE448815981F1E0E2E5D1E0C2E98B
:1004780020813881240F350F277037702083388307
:100488000895F1E0E2E5D1E0C2E920813881822FC8
:10049800632F0E94C50C0895D1E0CDE44C814150F2
:1004A800B1E0A2E5D1E0C2E950E0A40FB51FC40F46
:1004B800D51F2C913881822F632F0E94DF0C08955D
:1004C80081E00E94810D282F2F9380E00E94810DEA
:1004D8002F91382F40E0D1E0C2ED288339834A8339
:1004E800089520E030E040E0D1E0C2ED2883398370
:1004F8004A8308950E94260D87E00E94D70E0E9425
:10050800B2020E9481040E94260D81E391E060E41A
:1005180070E00E94BC0E8DE291E060E170E00E9404
:10052800BC0E0E9479040E945D050E94B6058DE20A
:1005380091E00E94C70E813011F40E940A0581E300
:1005480091E00E94C70E813021F40E94E9040E94C4
:10055800C8040E943E0D0C949B020895A9EDB1E0D9
:10056800C9E5D2E05096609620E031E02D933993AA
:1005780021E031E02D93399322E031E02D93399336
:1005880023E031E02D93399321E030E02D93399326
:1005980021E031E02D93399321E032E02D93399316
:1005A80021E033E02D93399320E031E02D93399306
:1005B80021E031E02D93399322E031E02D933993F6
:1005C80023E031E02D93399321E030E02D933993E6
:1005D80021E031E02D93399321E032E02D933993D6
:1005E80021E033E02D93399321E031E02D933993C5
:1005F80021E032E02D93399322E031E02D933993B5
:1006080022E032E02D93399321E031E02D933993A4
:1006180021E032E02D93399322E031E02D93399394
:1006280022E032E02D93399321E031E02D93399384
:1006380021E032E02D93399322E031E02D93399374
:1006480022E032E02D93399321E031E02D93399364
:1006580021E032E02D93399322E031E02D93399354
:1006680022E032E02D93399320E031E02D93399345
:1006780021E030E02D93399321E031E02D93399337
:1006880022E031E02D93399321E030E02D93399326
:1006980021E031E02D93399321E032E02D93399315
:1006A80022E031E02D93399320E030E02D93399307
:1006B80021E031E02D93399321E030E02D933993F7
:1006C80022E030E02D93399321E030E02D933993E7
:1006D80021E031E02D93399321E032E02D933993D5
:1006E80020E031E02D93399321E030E02D933993C8
:1006F80021E031E02D93399322E031E02D933993B5
:1007080023E031E02D93399321E031E02D933993A3
:1007180021E032E02D93399321E033E02D93399392
:1007280022E031E02D93399320E030E02D93399386
:1007380021E030E02D93399322E030E02D93399376
:1007480022E031E02D93399321E032E02D93399363
:1007580022E030E02D93399322E031E02D93399354
:1007680022E032E02D93399320E031E02D93399344
:1007780021E031E02D93399322E031E02D93399334
:1007880022E030E02D93399321E030E02D93399326
:1007980021E031E02D93399321E032E02D93399314
:1007A80022E032E02D93399321E032E02D93399302
:1007B80021E031E02D93399322E031E02D933993F4
:1007C80023E031E02D93399321E030E02D933993E4
:1007D80022E030E02D93399322E031E02D933993D4
:1007E80022E032E02D93399322E031E02D933993C2
:1007F80021E031E02D93399321E030E02D933993B6
:1008080020E030E02D93399321E032E02D933993A5
:1008180021E031E02D93399322E031E02D93399393
:1008280022E030E02D93399322E031E02D93399383
:1008380021E031E02D93399321E030E02D93399375
:1008480020E030E02D93399321E032E02D93399365
:1008580021E031E02D93399322E031E02D93399353
:1008680022E030E02D93399320E031E02D93399345
:1008780021E031E02D93399321E030E02D93399335
:1008880022E030E02D93399321E030E02D93399325
:1008980021E031E02D93399322E031E02D93399313
:1008A80022E032E02D93399320E031E02D93399303
:1008B80021E031E02D93399321E030E02D933993F5
:1008C80022E030E02D93399321E030E02D933993E5
:1008D80021E031E02D93399322E031E02D933993D3
:1008E80022E032E02D9339930895C5EDD1E020E060
:1008F800288329832A832B8308950F9381E391E02A
:1009080060E270E00E94BC0E0E94260D07E0C5ED73
:10091800D1E040E023E033E0088349832A833B8326
:10092800003091F00E94260D0E94B605C5EDD1E079
:100938000A95088381E391E00E94C70E813081F314
:100948000E943E0D0C949E040F9108950F9381E32D
:1009580091E06AE070E00E94BC0E08E00A950F3F43
:1009680089F0C0E0D1E0C00FD31F28812FEF288382
:1009780081E391E00E94C70E813081F30E943E0D11
:100988000C94BC040F9108950E94F405C0E0D1E0D6
:10099800279638E028812F3F89F422272883EC2FD7
:1009A800FD2F3197432F4150208131962083329774
:1009B8004A954030C9F722272083219621973A95F6
:1009C800303041F70E94B60508950E94F405C5ED40
:1009D800D1E03B8133953B830E946B05803011F059
:1009E8000C940705C5EDD1E03B813A953B830E9405
:1009F800B6050E945D050E946B05813021F00E94BA
:100A0800AA040C947E020E94B60508950E94F4057B
:100A18000E94C60D282F392F313099F0C5EDD1E04D
:100A28004C81403041F040E04C83C1E3D1E040E4E8
:100A380050E04A835B833F3F99F0203039F50C94AE
:100A48005A05C5EDD1E04C81413041F041E04C837D
:100A5800C1E3D1E040E150E04A835B830C945A053E
:100A6800C5EDD1E049814395437049832F933F9366
:100A78000E946B053F912F91813031F0C5EDD1E097
:100A880049814A95437049830C945A05C5EDD1E0D4
:100A98004A81420F4A832F930E946B052F91813020
:100AA80029F0C5EDD1E04A81421B4A830E94B60570
:100AB80008950E94810D8030E1F3C5EDD1E088836F
:100AC80023E030E040E02A833B83498308953F9246
:100AD8004F925F92D1E0C5ED388159803A804B80C2
:100AE800303021F486E69CE00E94B60FA9EDB1E013
:100AF800C9E5D2E0330F330F330F330F20E052161E
:100B080029F03C5F5A9420E05216D9F720E0A30F51
:100B1800B21FC30FD21F34E04D915991430D540DAC
:100B280080E04830DCF44030CCF080E05830B4F459
:100B38005030A4F03F93AF93BF93CF93DF93842FAC
:100B4800952F0E94170DDF91CF91BF91AF913F91E3
:100B5800803021F03A953030F9F681E05F904F907F
:100B68003F9008953F924F925F92D1E0C5ED388152
:100B780059803A804B80303021F486E69CE00E9410
:100B8800B60FA9EDB1E0C9E5D2E0330F330F330F4B
:100B9800330F20E0521629F03C5F5A9420E0521699
:100BA800D9F720E0A30FB21FC30FD21F34E04D9135
:100BB8005991430D540D3F93AF93BF93CF93DF9358
:100BC800842F652F0E94C50CDF91CF91BF91AF9103
:100BD8003F913A95303059F75F904F903F90089584
:100BE8003F924F925F92D1E0C5ED388159803A80AB
:100BF8004B80303021F486E69CE00E94B60FA9EDC8
:100C0800B1E0C9E5D2E0330F330F330F330F20E0E3
:100C1800521629F03C5F5A9420E05216D9F720E08A
:100C2800A30FB21FC30FD21F34E04D915991430D4A
:100C3800540D3F93AF93BF93CF93DF93842F652FCA
:100C48000E94DF0CDF91CF91BF91AF913F913A9510
:100C5800303059F75F904F903F9008950E94260DCD
:100C680087E00E94D70E0E941C0981E391E068E0AA
:100C780070E00E94BC0E8DE391E064E070E00E9499
:100C8800BC0E81E491E060E170E00E94BC0E85E456
:100C980091E060E471E00E94BC0E89E491E060E3B9
:100CA80070E00E94BC0E85E391E062E070E00E9473
:100CB800BC0E0E94D2060E94C8060E94CD060E9461
:100CC80007080E9407080E94E30D082F192F00301B
:100CD80021F4103011F40C947506C9E5D3E00A83A9
:100CE8001B8381E491E00E94C70E813011F40E94B9
:100CF800570885E491E00E94C70E813011F40E94E4
:100D0800070881E391E00E94C70E813061F400304A
:100D180021F4103011F40C9493060E94DD060E9411
:100D2800C508813061F18DE391E00E94C70E8130E2
:100D380031F40E9458070E94DB070E94CE0885E321
:100D480091E00E94C70E813011F40E94950789E452
:100D580091E00E94C70E813031F40E942A070E9458
:100D6800DB070E94CE080E94260D0E9475080E948B
:100D7800EE060E9474070E943E0D0C9467060E94BE
:100D88003F090C9432060895CDEDD3E020E0288386
:100D98000895C6E0D4E020E028830895C9E5D3E0AB
:100DA80023E034E041E05FEF288339834A835B83A3
:100DB80008950F931F93C9E5D3E0088119812A810B
:100DC8003B81020F130F07701770088319831F9157
:100DD8000F9108952F923F924F925F92C9E5D3E009
:100DE800288039804A805B80822D632D0E94C50C43
:100DF800842D652D0E94750E482F4D5F47704F93C7
:100E0800842F0E94400E482E592E222D332D240D5A
:100E1800350D27703770822F632F0E94C50C4F91B4
:100E28004E5F4770842F0E94400E482E592E222D67
:100E3800332D240D350D27703770822F632F0E94B4
:100E4800C50C5F904F903F902F9008954F925F92FE
:100E58000F931F93C6E0D4E02881283020F08FE953
:100E68009CE00E94B60FC9E5D3E0088119814A8049
:100E78005B80040D150DC6E0D4E02881CEEDD3E0EB
:100E880035E0329F30E0C00DD31F088319834A82B2
:100E98005B8230E03C832395C6E0D4E028831F9131
:100EA8000F915F904F9008950F931F93C6E0D4E081
:100EB8005881CEEDD3E040E0451710F00C9471074F
:100EC800088119812A813B81020F130F0883198336
:100ED8004395CB5FDF4F451798F31F910F91089506
:100EE8000F931F93C6E0D4E00881CEEDD3E010E065
:100EF800101710F00C949207288139814C814030EA
:100F080041F0CF93DF93822F632F0E94C50CDF91AE
:100F1800CF911395CB5FDF4F101770F31F910F918F
:100F28000895C6E0D4E02881CEEDD3E030E0321752
:100F380010F00C94A8074C81409541704C83339570
:100F4800CB5FDF4F3217B8F308952F923F924F923D
:100F58005F92482FC6E0D4E02881403024F0421741
:100F680014F40C94BB0786E69CE00E94B60FCEED05
:100F7800D3E035E0329F031A30E0C00DD31F28803C
:100F880039804A805B80CEEDD3E035E0349F30E095
:100F9800C00DD31F288239824A825B822A95C6E017
:100FA800D4E028835F904F903F902F9008950F933F
:100FB8001F93C6E0D4E01881CEEDD3E045E0419F11
:100FC800041A40E0C00DD41F012F0A95113014F403
:100FD8000C94040828813981287F387F203021F437
:100FE800303011F40C94FF07CF93DF93802F0E94C9
:100FF800A907DF91CF910A95C550D040003054F72A
:101008001F910F9108954F925F920F931F93CDED0B
:10101800D3E02881203220F08FE99CE00E94B60FAF
:1010280081E00E94850D282F26958170482F30E099
:1010380020FB30F9313039F021FB30F9341719F43D
:1010480032E0230F2770822F4F930E94400E4F915A
:10105800482E592E80E00E94810D30E0413039F051
:10106800182F00E043161CF407E00C944008082FE2
:1010780010E053160CF417E0CDEDD3E02881CDE550
:10108800D3E034E0329F30E0C00DD31F08831983CA
:101098004A825B822395CDEDD3E028831F910F917F
:1010A8005F904F9008950F931F93CDEDD3E0588133
:1010B800CDE5D3E040E0451710F00C9472080881A4
:1010C80019812A813B81020F130F0770177008835B
:1010D80019834395CC5FDF4F451788F31F910F9114
:1010E80008954F920F93CDEDD3E04880CDE5D3E03E
:1010F80000E0041510F00C94900838812981CF93F2
:10110800DF93832F622F0E94C50CDF91CF91039547
:10111800CC5FDF4F041588F30F914F9008952F92FD
:101128003F924F925F92482FCDEDD3E02881403017
:1011380024F0421714F40C94A50886E69CE00E945B
:10114800B60FCDE5D3E034E0329F031A30E0C00D8E
:10115800D31F288039804A805B80CDE5D3E034E016
:10116800349F30E0C00DD31F288239824A825B82C7
:101178002A95CDEDD3E028835F904F903F902F9034
:101188000895D3E0C9E528813981822F632F0E9411
:10119800F40808950F93D4E0C6E008810A9500305A
:1011A800ECF0D3E0CEED25E0029FC00DD11D2881E3
:1011B8003981CF93DF93822F632F0E94F408813007
:1011C80031F4892F0E949308802F0E94A907DF918C
:1011D800CF910A95C550D04000304CF70F91089533
:1011E8002F923F920F93282E362ED3E0CDED088113
:1011F8000A9540E00030B4F0D3E0CDE554E0059F17
:10120800C00DD11D28813981822D932D622F732F16
:101218000E94E90A482F413029F00A95C450D0406D
:10122800003084F7842F902F0F913F902F900895CE
:101238000F9389E391E060E270E00E94BC0E0E9487
:101248002D0C05E00E943E0D89E391E00E94C70E37
:10125800813011F00C942609202F2170213021F4BF
:101268000E94260D0C943A090E942D0C0A95003014
:1012780049F70F9108950F938DE291E068E070E0CF
:101288000E94BC0E00E0802F0E9457090E943E0D6C
:101298008DE291E00E94C70E8130A9F703950D30C9
:1012A80090F30F910895D1E0C0E0803011F40C94D0
:1012B8008D09813011F40C949E09823011F40C943C
:1012C800AF09833011F40C94C009843011F40C94E4
:1012D800D109853011F40C94E209863011F40C948C
:1012E800F309873011F40C94040A883011F40C9433
:1012F800150A893011F40C94260A8A3011F40C94DA
:10130800370A8B3011F40C94480A8C3011F40C9481
:10131800590A23E0299321E0299320E0299320E02A
:10132800299320E0299320E0299320E0299320E0C5
:101338002993089521E0299327E0299323E029930D
:1013480020E0299320E0299320E0299320EC299399
:1013580020E42993089520E0299324E029932FE09D
:10136800299326E0299320E3299320E1299320E07B
:10137800299320E02993089520E0299328EA2993C6
:1013880020E129932AE329932EE1299324E2299342
:1013980020E0299329E02993089524E8299329E254
:1013A80029932DE529932DE329932EE529932AE600
:1013B800299325E9299324E22993089524EF299371
:1013C8002DE529932FE729932DEF29932FE72993CB
:1013D8002EEF29932BEB29932DE5299308952FEFD1
:1013E80029932FEF29932FEF29932FEF29932FEF8D
:1013F80029932FEF29932FEF29932FEF29930895FE
:101408002FEF29932FEF29932FEF299327EE299375
:101418002FEE29932FEF29932FEF29932FEF29935D
:1014280008952FE329932FE7299327EF299322EC97
:10143800299327EE29932FED299327E7299325EF61
:10144800299308952AE3299325E7299327E92993DE
:1014580020E4299321EC299327EE299323E3299368
:1014680024E62993089524E8299329E4299321E07F
:10147800299320E0299320E8299322E2299326E45E
:10148800299320E12993089520E0299320E82993BE
:1014980021E0299320E0299320E0299320E0299353
:1014A80022E0299320E02993089520E0299320E061
:1014B800299320E0299320E0299320E0299320E034
:1014C800299320E0299320E0299308950E94320D62
:1014D8000E943E0D0C946C0A08950E94260D81E02E
:1014E8000E949F0D482E592E842D952D0E94B80DCF
:1014F800682E262C26942694269426942694922C9C
:1015080007E00919902E80E00E949F0D482E592E61
:10151800842D952D0E94B80D782E272C269426947C
:10152800269426942694822C07E00819802E892D6B
:10153800682D0E94C50C0E943E0D0C94710A0895F6
:101548000E94260D87E00E94D70E81E391E060E8B3
:1015580070E00E94BC0E16E000E00E94B20C81E32D
:1015680091E00E94C70E813051F50395011709F4E7
:1015780000E00E94260D003051F0013061F0023089
:1015880071F0033081F0043091F00530A1F00E9431
:10159800B20C0C94E30A0E949F0C0C94E30A0E947C
:1015A800790C0C94E30A0E948C0C0C94E30A0E94B8
:1015B800660C0C94E30A0E94530C0C94E30A0E94F4
:1015C8003E0D0C94B30A0895089520E0861719F487
:1015D800971709F421E0822F0895D1E0C0E0803008
:1015E80089F42FEF299321E829932DEB299321EAF8
:1015F800299329EB299321EA29932DEB29932FEF9E
:10160800299308952FEF299321E8299329EB29930A
:1016180025EA299329EB299325EA299325EA299391
:101628002FEF29930895D1E0C0E0803089F428E1B4
:1016380029932AE529932BED299329E9299329E967
:10164800299323EC299326E629932CE329930895DB
:101658000E94260D0895D1E0C0E0803089F42FEF74
:10166800299321E8299325EA299321EA299321EA54
:10167800299329EB299321E829932FEF299308959A
:101688002FEF299321E8299325EB299321EA299320
:1016980021EA299321EB299321E829932FEF299314
:1016A8000895D1E0C0E0803089F42FEF299321E933
:1016B800299321EB299321E9299321EC299325ECFE
:1016C80029932FEE29932FEF299308952FEF29932C
:1016D80021E8299321E8299321E8299329EF2993DF
:1016E80025ED29932FEE29932FEF29930895D1E023
:1016F800C0E0803089F42FEF299329E8299321EA63
:10170800299321E8299323EB299321EA299321E8B6
:1017180029932FEF299308952FEF299321EC2993EB
:1017280025E8299321E8299321EB299325EA299390
:1017380021E829932FEF29930895D1E0C0E0803064
:1017480089F42FEF299321E8299323ED29932FEE8C
:10175800299327EF299323EC299329E929932FEF3C
:10176800299308952FEF299321E8299323EC2993AE
:1017780027EE299327EE299323ED29932DEB29931F
:101788002FEF29930895D1E0C0E0803089F42FEF3E
:10179800299329E8299325EC299325EB299321EA14
:1017A80029932BEC299325E929932FEF2993089561
:1017B8002FEF299325EA299321E9299323EC2993EB
:1017C80029E8299325EA29932BE829932FEF2993D0
:1017D8000895D1E0C0E0803089F42FEF299321E803
:1017E800299329E9299329E9299329E929932DEBB3
:1017F800299321E829932FEF299308952FEF29930F
:1018080021E8299327E829932DE8299329E92993A1
:101818002DEB299321E829932FEF29930895D1E0FF
:10182800C0E0803051F42FEF29932993299329930D
:10183800299329932993299308952FEF299321E830
:101848002993299329932993299329932FEF29934E
:101858000895D1E0C0E020E1299320E2299328EF00
:1018680029932CEF29932DE029932EE029932CE03E
:1018780029932CE029930895D1E0C0E027EE29931D
:101888002DEB29932FEF299325EA299325EA29930C
:1018980023EC299326E629932CE329930895D1E094
:1018A800C0E021E8299324E2299324E2299328E13E
:1018B800299322E4299322E429932CE3299321E80C
:1018C80029930895D1E0C0E02FED29932FED2993B6
:1018D8002FED29932FED299320E029932FED2993BC
:1018E80020E029932FED29930895D1E0C0E020EA64
:1018F800299320E4299320EA29932FE1299320E1D1
:10190800299322E1299326E1299322E12993089535
:10191800D1E0C0E020EE299320EA299320EE299314
:101928002FE1299320E1299322E1299326E12993A4
:1019380022E129930895D1E0C0E02EE729932FEF03
:10194800299329E929932FEF29932FEF29932EE73C
:1019580029932AE5299320E029930895D1E0C0E04E
:1019680023EC299327EE29932EE729932CE3299337
:101978002CE329932EE7299327EE299323EC299327
:101988000895382F262F283030F0383020F089E796
:101998009CE00E94B60F40E8303021F03150469567
:1019A8000C94D00CD1E0C0E050E0C20FD51F2881C4
:1019B800242B28830895382F262F283030F03830EC
:1019C80020F089E79CE00E94B60F40E8303021F013
:1019D800315046950C94EA0C4095D1E0C0E050E0B7
:1019E800C20FD51F2881242328830895382F292F33
:1019F800283030F0383020F08CE89CE00E94B60F98
:101A080040E8303021F0315046950C94050DD1E076
:101A1800C0E050E0C20FD51F2881242380E0203089
:101A280009F081E008950E94FA0C8095817008956C
:101A3800D1E0C0E038E02881209529933A953030EC
:101A4800D1F70895D1E0C0E022272993299329935B
:101A5800299329932993299329930895D1E0C0E0E4
:101A68002FEF29932993299329932993299329932C
:101A7800299308952FB72F93F89440E021E0D1E0FF
:101A8800C0E0399137FB76F936FB77F935FB50F929
:101A980034FB51F933FB52F932FB53F931FB54F95A
:101AA80030FB55F920FB60F921FB61F922FB62F953
:101AB80023FB63F924FB72F925FB73F926FB74F900
:101AC80027FB75F955B968B97BB970E000000000CB
:101AD80000000000000073957F3FC1F75527662777
:101AE800772755B968B97BB9203821F0220F4F5FA5
:101AF8000C94450D2F912FBF08950E94850D869552
:101B080008950E949F0D282F3091B200230F36951B
:101B18003695230F36953695230F36953695230F30
:101B280040E020FB43F921FB42F922FB41F923FB6A
:101B380040F9842F08958170282F246030917C000B
:101B4800322B206F322330937C0020917A0020645E
:101B580020937A0020917A0026FD0C94AE0D809196
:101B68007800909179000895292F382F3695369569
:101B7800220F220F220F220F220F220F322B832F28
:101B880090E008956F927F9281E00E949F0D282F28
:101B9800392F822F932F0E94B80D682E80E00E9463
:101BA8009F0D282F392F822F932F0E94B80D782E42
:101BB800862D672D0E94000E7F906F9008956F927A
:101BC8007F9281E00E949F0D282F392F822F932F1B
:101BD8000E94B80D682E80E00E949F0D282F392F93
:101BE800822F932F0E94B80D782E862D672D0E9484
:101BF800190E7F906F900895282F362F50E040E0FF
:101C08003F3B08F05FEF3F3308F451E02F3B08F00B
:101C18004FEF2F3308F441E0403021F0503011F0FD
:101C280040E050E0842F952F0895282F362F50E05C
:101C380040E03F3908F05FEF313608F451E02F39C2
:101C480008F04FEF213608F441E0403021F05030E1
:101C580011F00C943D0E50E040E03F3B08F05FEF80
:101C6800313408F451E02F3B08F04FEF213408F4E9
:101C780041E0842F952F0895282F2770203071F088
:101C8800213081F0223091F02330A1F02430B1F0DE
:101C98002530C1F02630D1F02730E1F030E04FEFA9
:101CA8000C94720E31E04FEF0C94720E31E040E06C
:101CB8000C94720E31E041E00C94720E30E041E079
:101CC8000C94720E3FEF41E00C94720E3FEF40E02F
:101CD8000C94720E3FEF4FEF0C94720E832F942FDB
:101CE8000895382F462F3F3F31F0303061F03130C2
:101CF80081F00C94950E4F3F69F1403041F141302D
:101D080019F10C94950E4F3F81F04130D1F00C94AD
:101D1800950E4F3F69F0403071F0413079F00C94E6
:101D2800950E8FE99CE00E94B60F20E00C94B10E4E
:101D380021E00C94B10E22E00C94B10E23E00C9437
:101D4800B10E24E00C94B10E25E00C94B10E26E0FF
:101D58000C94B10E27E00C94B10E822F0895C82F71
:101D6800D92F288139812F5F3F4F288339830895E0
:101D7800C82FD92F20E030E028833983262F372F2A
:101D88002A833B830895C82FD92F288139814A8116
:101D98005B8180E02417350728F020E030E02883B5
:101DA800398381E00895382F37702091B100232BB3
:101DB800386F23232093B100209170002160209375
:101DC800700078940895CCE2D1E02881293020F081
:101DD8008FE99CE00E94B60FC8E0D1E034E0329F62
:101DE80030E0C00DD31F888399836A837B83239552
:101DF800CCE2D1E02883089581E391E060E270E0CD
:101E08000E94BC0E8DE291E060E470E00E94BC0E7E
:101E1800CCE2D1E028802F9320E0522E2F91052D7F
:101E2800152D352C452C8DE291E00E94C70E81308E
:101E380011F4139511700E94C60D382E492E81E3B6
:101E480091E00E94C70E813089F4351479F010E0D2
:101E5800030D051524F0021534F40C94380F022DE7
:101E68000A950C94380F052D352C452CC8E0D1E087
:101E780024E0029FC00DD51D451429F0EA81FB819D
:101E880009950E94BE0F812FE881F98109950E946A
:101E98003E0D0C94170F0895CCE2D1E020E0288382
:101EA8008FE29BE065EE70E00E94E70E85E59BE01F
:101EB8006EE772E00E94E70E8BE79BE062E376E054
:101EC8000E94E70E81EA9BE068E670E00E94E70E58
:101ED80087EC9BE06DEB70E00E94E70E8DEE9BE0D7
:101EE80061E77AE00E94E70E81EF9AE064EA7AE01F
:101EF8000E94E70E83E19CE06AE67AE00E94E70E22
:101F080087E19BE068EE7AE00E94E70E87E00E9496
:101F1800D70E0E94000F089538E03EBF2FEF2DBF67
:101F2800389A399A3A9A3B9A529A539A549A559AA5
:101F3800569A579A209A219A229A239A249A259A4D
:101F48003C983D9820917C0020642F7720937C005A
:101F580020917A00276820937A000E94500F0E94EF
:101F6800BE0F0895F894E82FF92F09950E943E0DA9
:101F78000C94BA0FF8940E94B20C0E943E0D0C9477
:021F8800C10F87
:00000001FF
