:020000020000FC
:060000000C94B3030000A4
:060040000C9434000000E6
:060024000C943500000001
:1000680018952F932FB72F932F933F93CF93DF9309
:100078008F939F9388E091E00E947C038CE091E04D
:100088000E947C0380E191E00E947C0384E191E07E
:100098000E947C039F918F91DF91CF913F912F9187
:1000A8002F912FBF2F91189587E00E94A0030E94DF
:1000B800DD008CE091E060E170E00E94850380E162
:1000C80091E06DE070E00E9485030E9454010E9457
:1000D800E8010E94D7010E94A6020E946B010E94BB
:1000E8004603082F192F003021F4103011F40C9416
:1000F8008D00D1E0C8E12881398121953195021719
:1001080021F4131711F40C948D00D1E0C8E10A838F
:100118001B838CE091E00E9490038130F1F080E134
:1001280091E00E949003803029F0D1E0CDE92A8146
:1001380020952A83D1E0CDE9288039800A81822D53
:10014800632D0E945F02003021F0822D632D0E94F2
:1001580045020E94BE020C947300D1E0C8E12A81D6
:100168003B81288339830E944301813021F00E941A
:10017800C3010C94CE00D1E0C8E14C8043944C827A
:10018800D1E0CDE948805980842D652D0E94450233
:100198000E94D7010E948F010E94B8010E941C0191
:1001A800813011F00C94AD000E9400010C945800AD
:1001B80008950F9384E191E060E270E00E94850366
:1001C8000E94F90105E00E94BE0284E191E00E94CC
:1001D8009003813011F00C94E700202F217021301A
:1001E80021F40E94A6020C94FB000E94F9010A95D2
:1001F800003049F70F9108958CE091E068E070E0D5
:100208000E9485030E94BE028CE091E00E94900348
:10021800813011F00C9406010E94C3010E94B801BC
:10022800C8E1D1E02C812A952C83203059F7089514
:100238002F923F924F92C8E1D1E04C804A94EDE171
:10024800F1E0CDE5D1E02080388040E0E40DF41FF6
:10025800C40DD41F20813881822D932D622F732FD6
:100268000E94F101813039F0319721974A9440E09A
:10027800441681F780E04F903F902F900895ADE1AC
:10028800B1E0CDE5D1E02C913881CDE9D1E04881CC
:100298005981842F952F622F732F0E94F1010895A1
:1002A800D1E0C8E120E031E0288339832A833B8309
:1002B80042E04C83F1E0EDE1D1E0CDE521E035E02D
:1002C8002083388321E036E0218339830895D1E003
:1002D800C8E15C8140E0F1E0EDE1D1E0CDE52081CD
:1002E80038812F933F934F935F93CF93EF93DF938F
:1002F800FF93822F632F0E944502FF91DF91EF91B8
:10030800CF915F914F913F912F91319621964395CF
:10031800451729F70895D1E0C8E14C814250403093
:1003280094F0F1E0EDE1D1E0CDE550E0E40FF51F08
:10033800C40FD51F208138812183398331972197B4
:100348004A954F3FB9F7D1E0C8E148815981F1E0BA
:10035800EDE1D1E0CDE520813881240F350F2770FC
:100368003770208338830895F1E0EDE1D1E0CDE5E1
:1003780020813881822F632F0E9445020895D1E0A1
:10038800C8E14C814150B1E0ADE1D1E0CDE550E0AC
:10039800A40FB51FC40FD51F2C913881822F632F4E
:1003A8000E945F02089581E00E940103282F2F9385
:1003B80080E00E9401032F91382F40E0D1E0CDE981
:1003C800288339834A83089520E030E040E0D1E073
:1003D800CDE9288339834A83089520E0861719F4E4
:1003E800971709F421E0822F0895D1E0C0E027EEA5
:1003F80029932DEB29932FEF299325EA299325EAB1
:10040800299323EC299326E629932CE3299308952D
:10041800D1E0C0E020EA299320E4299320EA299337
:100428002FE1299320E1299322E1299326E12993B9
:1004380022E129930895D1E0C0E020EE299320EA33
:10044800299320EE29932FE1299320E1299322E192
:10045800299326E1299322E129930895D1E0C0E068
:100468002EE729932FEF299329E929932FEF299331
:100478002FEF29932EE729932AE5299320E0299342
:100488000895382F262F283030F0383020F08CE0AF
:1004980092E00E94DB0340E8303021F0315046956D
:1004A8000C945002D1E0C0E050E0C20FD51F288163
:1004B800242B28830895382F262F283030F0383001
:1004C80020F08CE092E00E94DB0340E8303021F01D
:1004D800315046950C946A024095D1E0C0E050E056
:1004E800C20FD51F2881242328830895382F292F48
:1004F800283030F0383020F08FE192E00E94DB03A2
:1005080040E8303021F0315046950C948502D1E016
:10051800C0E050E0C20FD51F2881242380E020309E
:1005280009F081E008950E947A028095817008950B
:10053800D1E0C0E038E02881209529933A95303001
:10054800D1F70895D1E0C0E0222729932993299370
:10055800299329932993299329930895D1E0C0E0F9
:100568002FEF299329932993299329932993299341
:10057800299308952FB72F93F89440E021E0D1E014
:10058800C0E0399137FB76F936FB77F935FB50F93E
:1005980034FB51F933FB52F932FB53F931FB54F96F
:1005A80030FB55F920FB60F921FB61F922FB62F968
:1005B80023FB63F924FB72F925FB73F926FB74F915
:1005C80027FB75F955B968B97BB970E000000000E0
:1005D80000000000000073957F3FC1F7552766278C
:1005E800772755B968B97BB9203821F0220F4F5FBA
:1005F8000C94C5022F912FBF08950E94050386957C
:1006080008950E941F03282F3091B200230F3695BA
:100618003695230F36953695230F36953695230F45
:1006280040E020FB43F921FB42F922FB41F923FB7F
:1006380040F9842F08958170282F246030917C0020
:10064800322B206F322330937C0020917A00206473
:1006580020937A0020917A0026FD0C942E03809135
:100668007800909179000895292F382F369536957E
:10067800220F220F220F220F220F220F322B832F3D
:1006880090E008956F927F9281E00E941F03282FC7
:10069800392F822F932F0E943803682E80E00E9402
:1006A8001F03282F392F822F932F0E943803782E6B
:1006B800862D672D0E9463037F906F900895282FE1
:1006C800362F50E040E03F3B08F05FEF3F3308F43F
:1006D80051E02F3B08F04FEF2F3308F441E0403052
:1006E80021F0503011F040E050E0842F952F08950C
:1006F800C82FD92F288139812F5F3F4F288339830D
:100708000895C82FD92F20E030E028833983262F79
:10071800372F2A833B830895C82FD92F2881398101
:100728004A815B8180E02417350728F020E030E01B
:100738002883398381E00895382F37702091B100DC
:10074800232B386F23232093B10020917000216060
:1007580020937000789408950E945800089538E016
:100768003EBF2FEF2DBF389A399A3A9A3B9A529A40
:10077800539A549A559A569A579A209A219A229A95
:10078800239A249A259A3C983D9820917C002064CD
:100798002F7720937C0020917A00276820937A0095
:1007A8000E94B00382E392E00E94DB030895F8946C
:0E07B800E82FF92F09950E94BE020C94DF0372
:00000001FF
